:100000000C9471000C9499000C9499000C94990034
:100010000C9499000C9499000C9499000C949900FC
:100020000C9499000C9499000C9499000C949900EC
:100030000C9499000C9499000C9499000C949900DC
:100040000C947A050C9499000C9499000C949900E6
:100050000C9499000C9499000C9499000C949900BC
:100060000C9499000C94990005A84CCDB2D44EB9CB
:100070003836A9020C50B9918688083CA6AAAA2A4B
:10008000BE000000803F0000000023002600290081
:1000900000000000240027002A00000000002500C6
:1000A00028002B00040404040404040402020202D5
:1000B000020203030303030301020408102040802B
:1000C00001020408102001020408102000000008AA
:1000D000000201000003040700000000000000000F
:1000E000AD0711241FBECFEFD8E0DEBFCDBF11E0BA
:1000F000A0E0B1E0EEE7F5E102C005900D92AE3868
:10010000B107D9F721E0AEE8B1E001C01D92A13CF2
:10011000B207E1F710E0C1E7D0E004C02197FE018B
:100120000E94B70AC037D107C9F70E9409060C948C
:10013000BD0A0C94000080E480937C0080917A00DA
:10014000806480937A0080917A0086FDFCCF809154
:100150007800909179000895AF92BF92CF92DF928C
:10016000EF92FF920F931F93CF93DF936C017B016C
:100170008B01040F151FEB015E01AE18BF08C017FD
:10018000D10759F06991D601ED91FC910190F08170
:10019000E02DC6010995892B79F7C501DF91CF9133
:1001A0001F910F91FF90EF90DF90CF90BF90AF9095
:1001B000089590E0FC01E453FF4F2491FC01E854C2
:1001C000FF4F3491FC01EC55FF4FE491EE23C9F051
:1001D000222339F0233001F1A8F4213019F1223023
:1001E00029F1F0E0EE0FFF1FE656FF4FA591B49105
:1001F0008FB7F894EC91611126C030953E233C9363
:100200008FBF08952730A9F02830C9F0243049F76E
:10021000809180008F7D03C0809180008F778093D4
:100220008000DFCF84B58F7784BDDBCF84B58F7D31
:10023000FBCF8091B0008F778093B000D2CF8091B8
:10024000B0008F7DF9CF3E2BDACFCF93DF9390E0D4
:10025000FC01E854FF4F24918C559F4FFC01849181
:100260008823D1F090E0880F991FFC01E057FF4FE1
:10027000A591B491FC01E656FF4FC591D49161114F
:100280000EC09FB7F8948C91E22FE0958E238C934B
:100290002881E223E8839FBFDF91CF9108958FB734
:1002A000F894EC91E22BEC938FBFF6CF3FB7F89424
:1002B0008091930190919401A0919501B091960144
:1002C00026B5A89B05C02F3F19F00196A11DB11DB1
:1002D0003FBFBA2FA92F982F8827BC01CD01620FED
:1002E000711D811D911D42E0660F771F881F991FA8
:1002F0004A95D1F708958F929F92AF92BF92CF9275
:10030000DF92EF92FF924B015C010E9456016B015C
:100310007C010E9456016C197D098E099F09683E77
:10032000734081059105A8F321E0821A9108A10884
:10033000B10888EEC80E83E0D81EE11CF11C8114C0
:100340009104A104B10429F7FF90EF90DF90CF90C2
:10035000BF90AF909F908F900895089590E080E0B7
:1003600008958330910551F461E081E00E94D90045
:1003700061E082E00E94D90060E010C060E084305B
:10038000910521F08530910571F461E081E00E94D2
:10039000D90060E082E00E94D90061E083E00E9421
:1003A000D90060E021C060E08630910521F08730FF
:1003B000910531F461E081E00E94D90061E0EACF6B
:1003C00060E08830910521F08930910581F461E089
:1003D00081E00E94D90060E082E00E94D90060E0E4
:1003E00083E00E94D90061E084E00C94D90060E0D1
:1003F0008A30910521F08B30910531F461E081E084
:100400000E94D90061E0E8CF60E08C30910521F0D6
:100410008D30910551F461E081E00E94D90060E0E7
:1004200082E00E94D90061E0DBCF60E08E30910570
:1004300019F00F9731F461E081E00E94D90061E08A
:10044000EFCF60E081E00E94D90060E092CFFC0134
:1004500001900020E9F73197AF01481B590BBC010F
:1004600089EA91E00C94AC008F929F92AF92BF9278
:100470000F931F93CF93DF93CDB7DEB7A1970FB63E
:10048000F894DEBF0FBECDBF19A2423008F44AE097
:100490008E010F5D1F4F842E912CB12CA12CA50134
:1004A00094010E94950AE62FB901CA01EA30F4F4DA
:1004B000E05DD801EE938D01232B242B252B79F7BA
:1004C00090E080E0109719F0CD010E942702A196DC
:1004D0000FB6F894DEBF0FBECDBFDF91CF911F9155
:1004E0000F91BF90AF909F908F900895E95CE1CFFE
:1004F0000C942702CF93DF93EC0160E08E810E9481
:10050000D90061E08E810E94D90060E08E810E9456
:10051000D9008BE891E00197F1F7DF91CF91089531
:10052000CF92DF92EF92FF920F931F93CF93DF93BF
:100530006C017C0187E0E80EF11CD0E0C0E0062FE2
:1005400010E0B8010C2E02C0759567950A94E2F789
:100550006170F70181917F010E94D9002196C4301A
:10056000D10579F7C601DF91CF911F910F91FF90CF
:10057000EF90DF90CF900C947A02CF92DF92EF92BF
:10058000FF920F931F93CF93DF93EC01F62E642F0E
:100590008C810E94D9008D818F3F19F060E00E940C
:1005A000D9000F2D10E08F8584FF25C06E0187E0F4
:1005B000C80ED11CF12CE12CB8010E2C02C075958F
:1005C00067950A94E2F76170F60181916F010E94CC
:1005D000D900FFEFEF1AFF0A88E0E816F10461F78F
:1005E000CE01DF91CF911F910F91FF90EF90DF909F
:1005F000CF900C947A02B80184E0759567958A953E
:10060000E1F7CE010E9490026F2DCE01DF91CF91D4
:100610001F910F91FF90EF90DF90CF900C9490027C
:1006200040E0682F89EA91E00C94BD0281E00E94CD
:1006300010038BE39FE10197F1F70895CF93DF93C8
:10064000613029F09091B80198609093B80160935F
:10065000BC011092BD0190E49093BE018093BF0154
:10066000805C8093C00161E08091AD010E94250112
:100670008091AE018F3F19F061E00E94250161E099
:100680008091AF010E942501C9EAD1E09E01295A5B
:1006900031408091B80184FD0BC084E090E0219648
:1006A0002817390744F461E08E810E942501EECFBE
:1006B00088E090E0F4CF8BE39DE00197F1F760E0F4
:1006C0008091AD010E94D90060E08091AF010E944D
:1006D000D9008091AE018F3F19F060E00E94D900EF
:1006E0008091B80184FD34C063E089EA91E00E9402
:1006F0009002CBE4D6E4CE010197F1F763E089EAFA
:1007000091E00E9490022197F1F763E089EA91E07D
:100710000E94900283E592E00197F1F762E089EA96
:1007200091E00E9490028091B80180620E941003C3
:1007300084E08093B9018CE00E9410030E941603AC
:1007400082E08093BA0186E0DF91CF910C94100390
:1007500080620E9410038BE496E40197F1F7809188
:10076000B80180620E94100383E592E00197F1F7DF
:100770008091B80180620E941003D5CF9091BC0196
:10078000891710F08FEF890FE82FF0E0E755FE4F43
:10079000848980680C94100341E00E94BD0281E0CE
:1007A00090E008954F925F926F927F928F929F9206
:1007B000AF92BF92CF92DF92EF92FF920F931F936F
:1007C000CF936B017C01742EAC019B010E94470A00
:1007D000882399F08CE091E0CF911F910F91FF90C9
:1007E000EF90DF90CF90BF90AF909F908F907F90D1
:1007F0006F905F904F900C94270246015701E89448
:10080000B7F82FEF3FEF4FE75FE7C501B4010E9454
:10081000470A81110DC02FEF3FEF4FE75FE7C5019A
:10082000B4010E94390818161CF480E191E0D4CF7D
:100830002FEF3FEF4FE75FE4C701B6010E94D509F4
:1008400018161CF484E191E0C7CF2FEF3FEF4FE77C
:100850005FECC701B6010E94390887FDF3CF20E0A5
:1008600030E0A901C701B6010E94390810E000E09C
:1008700087FF0CC041E06DE289EA91E00E94BD0271
:10088000F7FAF094F7F8F09401E010E0C0E060E0CF
:1008900070E080E09FE37C1641F020E030E040E231
:1008A00051E40E944308CF5FF6CFA70196010E9452
:1008B000CD074B015C010E94B5082B013C014AE0C9
:1008C0000E943402080F191FCC23C9F1C301B201E1
:1008D0000E94E4089B01AC01C501B4010E94CC0751
:1008E0004B015C0141E06EE289EA91E00E94BD02A9
:1008F0000F5F1F4FC15018F120E030E040E251E49B
:10090000C501B4010E94DA092B013C010E94B5081F
:100910004B01B12CA12C4AE0C501B4010E94340264
:10092000080F191FC501B4010E94E4089B01AC0126
:10093000C301B2010E94CC074B015C01DBCFC801AF
:10094000CF911F910F91FF90EF90DF90CF90BF90CC
:10095000AF909F908F907F906F905F904F90089591
:1009600083E00E94BE0385E691E00E94780280E069
:100970000E94BE0388E191E00E9478026091970195
:10098000709198018091990190919A0142E00E94A2
:10099000D20381E00E94BE0381E291E00E947802CE
:1009A00060919B0170919C0180919D0190919E01AD
:1009B00042E00C94D203CF92DF92EF92FF9283E059
:1009C0000E94BE0387E291E00E947802C090A701D6
:1009D000D090A8010D2C000CEE08FF084AE0C701DA
:1009E000B601F7FE0EC041E06DE289EA91E00E9497
:1009F000BD0266277727CB016C197D098E099F09F7
:100A00004AE0FF90EF90DF90CF900C9434020F9368
:100A10001F93E8EBF0E06491E4EAF0E0E491F0E0A9
:100A2000EE0FFF1FEA57FF4F8591949100E412E407
:100A30002FE030E0462F0E94C40561157105810545
:100A4000910529F06F5F7F4F8F4F9F4F9F70072E4B
:100A5000000C880B990B0E94E6082CEB34E743E965
:100A60005CE30E94DA0920E030E044EB52E40E94AB
:100A7000CC076093970170939801809399019093AC
:100A80009A0129E33AEF4EE85CE30E94DA090E94FA
:100A90003E0860939B0170939C0180939D0190930D
:100AA0009E010E949B00BC01990F880B990B0E942C
:100AB000E6086093A3017093A4018093A50190932D
:100AC000A60164EF71E080E090E00E947B010E944B
:100AD0009B00BC01990F880B990B0E94E60860935C
:100AE0009F017093A0018093A1019093A2011F9197
:100AF0000F9108951F920F920FB60F9211242F930A
:100B00003F938F939F93AF93BF9380918F01909169
:100B10009001A0919101B091920130918E0123E05A
:100B2000230F2D3758F50196A11DB11D20938E017D
:100B300080938F0190939001A0939101B0939201C3
:100B40008091930190919401A0919501B0919601AB
:100B50000196A11DB11D8093930190939401A093E0
:100B60009501B0939601BF91AF919F918F913F9165
:100B70002F910F900FBE0F901F90189526E8230F0E
:100B80000296A11DB11DD2CFCF92DF92EF92FF92BC
:100B90000F931F93E82FF92F05C001501109210968
:100BA000310961F1908196239417B9F305C0015082
:100BB00011092109310911F1908196239413F7CF7E
:100BC000C12CD12CE12CF12C0AC08FEFC81AD80A05
:100BD000E80AF80A0C151D052E053F0579F08081FD
:100BE0008623841791F36C2D7D2D8E2D9F2D1F91C3
:100BF0000F91FF90EF90DF90CF90089560E070E04C
:100C000080E090E01F910F91FF90EF90DF90CF90E8
:100C10000895789484B5826084BD84B5816084BD74
:100C200085B5826085BD85B5816085BD80916E008A
:100C3000816080936E0010928100809181008260BB
:100C400080938100809181008160809381008091F8
:100C500080008160809380008091B10084608093E7
:100C6000B1008091B00081608093B00080917A00E3
:100C7000846080937A0080917A00826080937A0009
:100C800080917A00816080937A0080917A008068F8
:100C900080937A001092C10064E084E10E941E03F8
:100CA00060E080E00E94250160E08EE00E94250166
:100CB00061E081E00E94250161E082E00E9425015F
:100CC00061E083E00E94250161E084E00E9425014B
:100CD00060E081E00E94D90060E082E00E94D900DB
:100CE00060E083E00E94D90060E084E00E94D900C7
:100CF000C0E0D0E01092A8011092A70190E080E03F
:100D00000E94B1010E94070564EF71E080E090E06D
:100D10000E947B0120E030E040E85FE36091A301A6
:100D20007091A4018091A5019091A6010E943908BB
:100D300087FF29C020E030E040E85FE360919F0139
:100D40007091A0018091A1019091A2010E943908A7
:100D500087FF19C00E9416030E94160381E00E94BB
:100D6000BE0387E391E00E94780282E00E94BE0306
:100D700086E491E00E9478026CE271E080E090E00D
:100D80000E947B01BFCF1092A8011092A70190E0B2
:100D900080E00E94B1010E94070564EF71E080E0ED
:100DA00090E00E947B010E9416030E94B0040E9402
:100DB000DB0423E333E343E75FE360919B0170913E
:100DC0009C0180919D0190919E010E94390887FFAE
:100DD00018C082E00E94BE0386E591E00E9478027E
:100DE0008091A7019091A80101969093A80180930A
:100DF000A701803191050CF449C01092A80110920E
:100E0000A70160E971E080E090E00E947B0182E050
:100E10000E94BE0384E691E00E94780282E00E9474
:100E2000BE0388E791E00E94780268EE73E080E0FC
:100E300090E00E947B010E94B0040E94DB0423E347
:100E400033E343E75FE360919B0170919C018091E4
:100E50009D0190919E010E94390887FD72C082E039
:100E60000E94BE0384E691E00E94780282E00E9424
:100E7000BE038DE791E00E9478026CEB72E080E0A7
:100E800090E00E947B010E940705D5CF813091053B
:100E900009F04BC061E081E00E94D90060E082E08F
:100EA0000E94D90060E083E00E94D90060E084E005
:100EB0000E94D90064E670E080E090E00E947B012F
:100EC0000E94070564EF71E080E090E00E947B01E2
:100ED0000E94B0040E94DB0420E030E040EA51E4CC
:100EE00060919701709198018091990190919A0178
:100EF0000E94D50918160CF484CF23E333E343E7AB
:100F00005FE360919B0170919C0180919D019091A4
:100F10009E010E94D50918160CF473CF60E971E0A8
:100F200080E090E00E947B0144CF8230910531F453
:100F300060E081E00E94D90061E0B1CF0E94B10180
:100F4000B9CF64EF71E080E090E00E947B012097D0
:100F500009F4D0CE0E940000CDCEE9EAF1E0138280
:100F6000128284E091E0918380838DE084838FEF0F
:100F700085838CE086838BE087838AE0808789E0A5
:100F8000818788E0828713861486158616861786E1
:100F900061E080E10C941E035058BB27AA270E94F1
:100FA000E4070C9487090E944E0938F00E94550905
:100FB00020F039F49F3F19F426F40C944B090EF4F9
:100FC000E095E7FB0C944509E92F0E94AC0958F322
:100FD000BA17620773078407950720F079F4A6F51E
:100FE0000C94CE090EF4E0950B2EBA2FA02D0B0118
:100FF000B90190010C01CA01A0011124FF27591B5E
:1010000099F0593F50F4503E68F11A16F040A22F63
:10101000232F342F4427585FF3CF469537952795D4
:10102000A795F0405395C9F77EF41F16BA0B620BD3
:10103000730B840BBAF09150A1F0FF0FBB1F661F1A
:10104000771F881FC2F70EC0BA0F621F731F841F5D
:1010500048F4879577956795B795F7959E3F08F083
:10106000B0CF9395880F08F09927EE0F9795879545
:1010700008950E94210908F481E008950E945E0904
:10108000E3950C9498090E9457080C9487090E94D4
:10109000550958F00E944E0940F029F45F3F29F0AD
:1010A0000C94450951110C94CF090C944B090E94E2
:1010B000AC0968F39923B1F3552391F3951B550BB4
:1010C000BB27AA2762177307840738F09F5F5F4F1B
:1010D000220F331F441FAA1FA9F335D00E2E3AF05A
:1010E000E0E832D091505040E695001CCAF72BD072
:1010F000FE2F29D0660F771F881FBB1F26173707C3
:101100004807AB07B0E809F0BB0B802DBF01FF27F4
:1011100093585F4F3AF09E3F510578F00C94450983
:101120000C94CF095F3FE4F3983ED4F3869577950E
:101130006795B795F7959F5FC9F7880F911D9695AD
:10114000879597F90895E1E0660F771F881FBB1F09
:10115000621773078407BA0720F0621B730B840BB6
:10116000BA0BEE1F88F7E09508950E94B40988F045
:101170009F5798F0B92F9927B751B0F0E1F0660F5B
:10118000771F881F991F1AF0BA95C9F714C0B1309C
:1011900091F00E94CE09B1E008950C94CE09672F1A
:1011A000782F8827B85F39F0B93FCCF386957795CB
:1011B0006795B395D9F73EF49095809570956195B4
:1011C0007F4F8F4F9F4F0895E89409C097FB3EF4DF
:1011D00090958095709561957F4F8F4F9F4F992384
:1011E000A9F0F92F96E9BB279395F6958795779502
:1011F0006795B795F111F8CFFAF4BB0F11F460FFC2
:101200001BC06F5F7F4F8F4F9F4F16C0882311F019
:1012100096E911C0772321F09EE8872F762F05C02D
:10122000662371F096E8862F70E060E02AF09A95C8
:10123000660F771F881FDAF7880F9695879597F9BD
:101240000895990F0008550FAA0BE0E8FEEF161657
:101250001706E807F907C0F012161306E407F507AA
:1012600098F0621B730B840B950B39F40A2661F01E
:10127000232B242B252B21F408950A2609F4A140C1
:10128000A6958FEF811D811D089597F99F6780E8CE
:1012900070E060E008959FEF80EC089500240A94C8
:1012A0001616170618060906089500240A94121641
:1012B00013061406050608950C944B090E94B40900
:1012C000D8F3E894E0E0BB279F57F0F02AED3FE029
:1012D00049EC06C0EE0FBB0F661F771F881F28F072
:1012E000B23A62077307840728F0B25A620B730B95
:1012F000840BE3959A9572F7803830F49A95BB0F7A
:10130000661F771F881FD2F790480C944E0A092E4B
:101310000394000C11F4882352F0BB0F40F4BF2B50
:1013200011F460FF04C06F5F7F4F8F4F9F4F089590
:10133000EF93E0FF07C0A2EA2AED3FE049EC5FEB44
:101340000E94E4070E9487090F90039401FC9058C3
:10135000E8E6F0E00C945A0A57FD9058440F551FE8
:1013600059F05F3F71F04795880F97FB991F61F027
:101370009F3F79F087950895121613061406551F9E
:10138000F2CF4695F1DF08C0161617061806991F0A
:10139000F1CF86957105610508940895E894BB27FF
:1013A00066277727CB0197F908950E94210908F451
:1013B0008FEF08950E94ED090C9487090E944E0951
:1013C00038F00E94550920F0952311F00C9445093E
:1013D0000C944B0911240C94CF090E94AC0970F3B2
:1013E000959FC1F3950F50E0551F629FF001729FCA
:1013F000BB27F00DB11D639FAA27F00DB11DAA1FD9
:10140000649F6627B00DA11D661F829F2227B00D25
:10141000A11D621F739FB00DA11D621F839FA00DB0
:10142000611D221F749F3327A00D611D231F849F00
:10143000600D211D822F762F6A2F11249F57504057
:101440009AF0F1F088234AF0EE0FFF1FBB1F661FD2
:10145000771F881F91505040A9F79E3F510580F09B
:101460000C9445090C94CF095F3FE4F3983ED4F304
:10147000869577956795B795F795E7959F5FC1F73F
:10148000FE2B880F911D9695879597F908950E94D8
:101490002109880B990B08959F3F31F0915020F45A
:1014A000879577956795B795880F911D9695879540
:1014B00097F908959F938F937F936F93FF93EF9383
:1014C0009B01AC010E94DA09EF91FF910E946E0A24
:1014D0002F913F914F915F910C94DA09DF93CF9355
:1014E0001F930F93FF92EF92DF927B018C01689420
:1014F00006C0DA2EEF010E94ED09FE01E894A591E5
:101500002591359145915591A6F3EF010E94E4078D
:10151000FE019701A801DA9469F7DF90EF90FF9040
:101520000F911F91CF91DF910895A1E21A2EAA1B6E
:10153000BB1BFD010DC0AA1FBB1FEE1FFF1FA21783
:10154000B307E407F50720F0A21BB30BE40BF50B80
:10155000661F771F881F991F1A9469F76095709509
:10156000809590959B01AC01BD01CF010895EE0FD0
:0E157000FF1F0590F491E02D0994F894FFCF31
:10157E0000000000CC03AC00AE01AD016E616E0048
:10158E00696E66006F766600416E676C65203D2061
:10159E00005046203D2000434220436F6D62696E2D
:1015AE006174696F6E3D00202020202020204E4F58
:1015BE00204C4F414400202020202020434F4E4EEF
:1015CE00454354454400436F7272656374696E6798
:1015DE0020504600202020202020202020202020C7
:1015EE0020202020202020005741495400434F52F4
:0E15FE0052454354494F4E20444F4E45210064
:00000001FF
